{
  "contractName": "CharityBazaar",
  "abi": [
    {
      "inputs": [],
      "stateMutability": "payable",
      "type": "constructor"
    },
    {
      "inputs": [],
      "name": "_owner",
      "outputs": [
        {
          "internalType": "address payable",
          "name": "",
          "type": "address"
        }
      ],
      "stateMutability": "view",
      "type": "function"
    },
    {
      "inputs": [
        {
          "internalType": "address",
          "name": "",
          "type": "address"
        }
      ],
      "name": "creditList",
      "outputs": [
        {
          "internalType": "bool",
          "name": "isUserExisted",
          "type": "bool"
        },
        {
          "internalType": "uint256",
          "name": "creditRest",
          "type": "uint256"
        }
      ],
      "stateMutability": "view",
      "type": "function"
    },
    {
      "inputs": [],
      "name": "idCounter",
      "outputs": [
        {
          "internalType": "uint256",
          "name": "",
          "type": "uint256"
        }
      ],
      "stateMutability": "view",
      "type": "function"
    },
    {
      "inputs": [],
      "name": "isAnyOrderPending",
      "outputs": [
        {
          "internalType": "bool",
          "name": "",
          "type": "bool"
        }
      ],
      "stateMutability": "view",
      "type": "function"
    },
    {
      "inputs": [
        {
          "internalType": "uint256",
          "name": "",
          "type": "uint256"
        }
      ],
      "name": "itemHighestPrice",
      "outputs": [
        {
          "internalType": "address",
          "name": "",
          "type": "address"
        }
      ],
      "stateMutability": "view",
      "type": "function"
    },
    {
      "inputs": [
        {
          "internalType": "uint256",
          "name": "",
          "type": "uint256"
        }
      ],
      "name": "itemList",
      "outputs": [
        {
          "internalType": "string",
          "name": "itemName",
          "type": "string"
        },
        {
          "internalType": "uint256",
          "name": "price",
          "type": "uint256"
        },
        {
          "internalType": "bool",
          "name": "isItemSold",
          "type": "bool"
        },
        {
          "internalType": "address",
          "name": "owner",
          "type": "address"
        }
      ],
      "stateMutability": "view",
      "type": "function"
    },
    {
      "inputs": [],
      "name": "minimalDonateAmount",
      "outputs": [
        {
          "internalType": "uint256",
          "name": "",
          "type": "uint256"
        }
      ],
      "stateMutability": "view",
      "type": "function"
    },
    {
      "inputs": [
        {
          "internalType": "address",
          "name": "",
          "type": "address"
        }
      ],
      "name": "orderList",
      "outputs": [
        {
          "internalType": "bool",
          "name": "isValidOrder",
          "type": "bool"
        },
        {
          "internalType": "uint256",
          "name": "itemID",
          "type": "uint256"
        },
        {
          "internalType": "uint256",
          "name": "price",
          "type": "uint256"
        },
        {
          "internalType": "bool",
          "name": "hasConfirmed",
          "type": "bool"
        }
      ],
      "stateMutability": "view",
      "type": "function"
    },
    {
      "inputs": [
        {
          "internalType": "uint256",
          "name": "",
          "type": "uint256"
        }
      ],
      "name": "registeredUser",
      "outputs": [
        {
          "internalType": "address",
          "name": "",
          "type": "address"
        }
      ],
      "stateMutability": "view",
      "type": "function"
    },
    {
      "inputs": [],
      "name": "userCounter",
      "outputs": [
        {
          "internalType": "uint256",
          "name": "",
          "type": "uint256"
        }
      ],
      "stateMutability": "view",
      "type": "function"
    },
    {
      "stateMutability": "payable",
      "type": "receive"
    },
    {
      "inputs": [
        {
          "internalType": "string",
          "name": "_itemName",
          "type": "string"
        },
        {
          "internalType": "uint256",
          "name": "_price",
          "type": "uint256"
        }
      ],
      "name": "createItem",
      "outputs": [],
      "stateMutability": "nonpayable",
      "type": "function"
    },
    {
      "inputs": [
        {
          "internalType": "uint256",
          "name": "_itemID",
          "type": "uint256"
        },
        {
          "internalType": "uint256",
          "name": "_bidPrice",
          "type": "uint256"
        }
      ],
      "name": "bidItem",
      "outputs": [],
      "stateMutability": "payable",
      "type": "function"
    },
    {
      "inputs": [],
      "name": "cancelOrder",
      "outputs": [],
      "stateMutability": "payable",
      "type": "function"
    },
    {
      "inputs": [],
      "name": "confirm",
      "outputs": [],
      "stateMutability": "payable",
      "type": "function"
    },
    {
      "inputs": [
        {
          "internalType": "uint256",
          "name": "_donatePrice",
          "type": "uint256"
        }
      ],
      "name": "donate",
      "outputs": [],
      "stateMutability": "payable",
      "type": "function"
    },
    {
      "inputs": [
        {
          "internalType": "address",
          "name": "userAddress",
          "type": "address"
        }
      ],
      "name": "checkFirstUser",
      "outputs": [],
      "stateMutability": "nonpayable",
      "type": "function"
    },
    {
      "inputs": [],
      "name": "withdraw",
      "outputs": [],
      "stateMutability": "nonpayable",
      "type": "function"
    },
    {
      "inputs": [],
      "name": "balanceOfUser",
      "outputs": [
        {
          "internalType": "uint256",
          "name": "",
          "type": "uint256"
        }
      ],
      "stateMutability": "view",
      "type": "function"
    },
    {
      "inputs": [],
      "name": "balanceOfContract",
      "outputs": [
        {
          "internalType": "uint256",
          "name": "",
          "type": "uint256"
        }
      ],
      "stateMutability": "view",
      "type": "function"
    },
    {
      "inputs": [],
      "name": "balanceOfOwner",
      "outputs": [
        {
          "internalType": "uint256",
          "name": "",
          "type": "uint256"
        }
      ],
      "stateMutability": "view",
      "type": "function"
    }
  ],
  "bytecode": "0x6080604052600180556000600355670de0b6b3a76400006005556000600660006101000a81548160ff021916908315150217905550336000806101000a81548173ffffffffffffffffffffffffffffffffffffffff021916908373ffffffffffffffffffffffffffffffffffffffff16021790555061250b806100836000396000f3fe6080604052600436106101235760003560e01c80638c551742116100a0578063e6c7c45611610064578063e6c7c456146105d6578063eb08ab2814610601578063f0c37a591461062c578063f14faf6f14610657578063f8c25703146106855761012a565b80638c551742146103fb578063b26f728e146104cd578063b2bdfa7b14610532578063bd8be8d514610573578063ddbbb6481461059e5761012a565b80636868178b116100e75780636868178b146102eb5780636a816548146103185780637022b58e146103225780637b9896071461032c5780637c08b4a0146103aa5761012a565b8063354c658e1461012f5780633ccfd60b1461015a5780633ce69e0d146101715780633d4d3600146101df5780634975d202146102c05761012a565b3661012a57005b600080fd5b34801561013b57600080fd5b506101446106ea565b6040518082815260200191505060405180910390f35b34801561016657600080fd5b5061016f610709565b005b34801561017d57600080fd5b506101c06004803603602081101561019457600080fd5b81019080803573ffffffffffffffffffffffffffffffffffffffff169060200190929190505050610816565b6040518083151581526020018281526020019250505060405180910390f35b3480156101eb57600080fd5b506102186004803603602081101561020257600080fd5b8101908080359060200190929190505050610847565b604051808060200185815260200184151581526020018373ffffffffffffffffffffffffffffffffffffffff168152602001828103825286818151815260200191508051906020019080838360005b83811015610282578082015181840152602081019050610267565b50505050905090810190601f1680156102af5780820380516001836020036101000a031916815260200191505b509550505050505060405180910390f35b3480156102cc57600080fd5b506102d561093c565b6040518082815260200191505060405180910390f35b3480156102f757600080fd5b5061030061097c565b60405180821515815260200191505060405180910390f35b61032061098f565b005b61032a610ccc565b005b34801561033857600080fd5b5061037b6004803603602081101561034f57600080fd5b81019080803573ffffffffffffffffffffffffffffffffffffffff169060200190929190505050611506565b604051808515158152602001848152602001838152602001821515815260200194505050505060405180910390f35b3480156103b657600080fd5b506103f9600480360360208110156103cd57600080fd5b81019080803573ffffffffffffffffffffffffffffffffffffffff169060200190929190505050611550565b005b34801561040757600080fd5b506104cb6004803603604081101561041e57600080fd5b810190808035906020019064010000000081111561043b57600080fd5b82018360208201111561044d57600080fd5b8035906020019184600183028401116401000000008311171561046f57600080fd5b91908080601f016020809104026020016040519081016040528093929190818152602001838380828437600081840152601f19601f820116905080830192505050505050509192919290803590602001909291905050506116bc565b005b3480156104d957600080fd5b50610506600480360360208110156104f057600080fd5b81019080803590602001909291905050506119d2565b604051808273ffffffffffffffffffffffffffffffffffffffff16815260200191505060405180910390f35b34801561053e57600080fd5b50610547611a05565b604051808273ffffffffffffffffffffffffffffffffffffffff16815260200191505060405180910390f35b34801561057f57600080fd5b50610588611a29565b6040518082815260200191505060405180910390f35b6105d4600480360360408110156105b457600080fd5b810190808035906020019092919080359060200190929190505050611a2f565b005b3480156105e257600080fd5b506105eb612121565b6040518082815260200191505060405180910390f35b34801561060d57600080fd5b50610616612129565b6040518082815260200191505060405180910390f35b34801561063857600080fd5b5061064161212f565b6040518082815260200191505060405180910390f35b6106836004803603602081101561066d57600080fd5b8101908080359060200190929190505050612135565b005b34801561069157600080fd5b506106be600480360360208110156106a857600080fd5b8101908080359060200190929190505050612309565b604051808273ffffffffffffffffffffffffffffffffffffffff16815260200191505060405180910390f35b60003373ffffffffffffffffffffffffffffffffffffffff1631905090565b60008054906101000a900473ffffffffffffffffffffffffffffffffffffffff1673ffffffffffffffffffffffffffffffffffffffff163373ffffffffffffffffffffffffffffffffffffffff16146107ad576040517f08c379a00000000000000000000000000000000000000000000000000000000081526004018080602001828103825260278152602001806123f46027913960400191505060405180910390fd5b60008054906101000a900473ffffffffffffffffffffffffffffffffffffffff1673ffffffffffffffffffffffffffffffffffffffff166108fc479081150290604051600060405180830381858888f19350505050158015610813573d6000803e3d6000fd5b50565b60096020528060005260406000206000915090508060000160009054906101000a900460ff16908060010154905082565b6008602052806000526040600020600091509050806000018054600181600116156101000203166002900480601f0160208091040260200160405190810160405280929190818152602001828054600181600116156101000203166002900480156108f35780601f106108c8576101008083540402835291602001916108f3565b820191906000526020600020905b8154815290600101906020018083116108d657829003601f168201915b5050505050908060010154908060020160009054906101000a900460ff16908060020160019054906101000a900473ffffffffffffffffffffffffffffffffffffffff16905084565b60008060009054906101000a900473ffffffffffffffffffffffffffffffffffffffff1673ffffffffffffffffffffffffffffffffffffffff1631905090565b600660009054906101000a900460ff1681565b600760003373ffffffffffffffffffffffffffffffffffffffff1673ffffffffffffffffffffffffffffffffffffffff1681526020019081526020016000206040518060800160405290816000820160009054906101000a900460ff1615151515815260200160018201548152602001600282015481526020016003820160009054906101000a900460ff1615151515815250506001151581600001511515148015610a4357506000151581606001511515145b610ab5576040517f08c379a00000000000000000000000000000000000000000000000000000000081526004018080602001828103825260108152602001807f4e6f206f726465722070656e64696e670000000000000000000000000000000081525060200191505060405180910390fd5b600033905060001515600760008373ffffffffffffffffffffffffffffffffffffffff1673ffffffffffffffffffffffffffffffffffffffff16815260200190815260200160002060030160009054906101000a900460ff16151514610b83576040517f08c379a000000000000000000000000000000000000000000000000000000000815260040180806020018281038252601f8152602001807f546865206f726465722068617320616c726561647920636f6e6669726d65640081525060200191505060405180910390fd5b6000600760008373ffffffffffffffffffffffffffffffffffffffff1673ffffffffffffffffffffffffffffffffffffffff16815260200190815260200160002060000160006101000a81548160ff0219169083151502179055506000670de0b6b3a7640000600760008473ffffffffffffffffffffffffffffffffffffffff1673ffffffffffffffffffffffffffffffffffffffff168152602001908152602001600020600201540290508173ffffffffffffffffffffffffffffffffffffffff166108fc829081150290604051600060405180830381858888f19350505050158015610c75573d6000803e3d6000fd5b506001600960008473ffffffffffffffffffffffffffffffffffffffff1673ffffffffffffffffffffffffffffffffffffffff16815260200190815260200160002060010160008282540392505081905550505050565b60008054906101000a900473ffffffffffffffffffffffffffffffffffffffff1673ffffffffffffffffffffffffffffffffffffffff163373ffffffffffffffffffffffffffffffffffffffff1614610d70576040517f08c379a00000000000000000000000000000000000000000000000000000000081526004018080602001828103825260278152602001806123f46027913960400191505060405180910390fd5b600660009054906101000a900460ff16610df2576040517f08c379a00000000000000000000000000000000000000000000000000000000081526004018080602001828103825260168152602001807f4e6f206f7264657220756e6465722070656e64696e670000000000000000000081525060200191505060405180910390fd5b600080600090806001815401808255809150506001900390600052602060002001600090919091909150556000600190505b60015481116114a7578160009080600181540180825580915050600190039060005260206000200160009091909190915055600015156008600083815260200190815260200160002060020160009054906101000a900460ff161515141561149a5760005b6002805490508110156112d657600060028281548110610ea557fe5b9060005260206000200160009054906101000a900473ffffffffffffffffffffffffffffffffffffffff1690506000600760008373ffffffffffffffffffffffffffffffffffffffff1673ffffffffffffffffffffffffffffffffffffffff1681526020019081526020016000206040518060800160405290816000820160009054906101000a900460ff1615151515815260200160018201548152602001600282015481526020016003820160009054906101000a900460ff16151515158152505090506001151581600001511515148015610f855750838160200151145b156112c757848481548110610f9657fe5b9060005260206000200154816040015111156111ae5760008054906101000a900473ffffffffffffffffffffffffffffffffffffffff1673ffffffffffffffffffffffffffffffffffffffff166004600086815260200190815260200160002060009054906101000a900473ffffffffffffffffffffffffffffffffffffffff1673ffffffffffffffffffffffffffffffffffffffff1614611138576000670de0b6b3a7640000600760006004600089815260200190815260200160002060009054906101000a900473ffffffffffffffffffffffffffffffffffffffff1673ffffffffffffffffffffffffffffffffffffffff1673ffffffffffffffffffffffffffffffffffffffff1681526020019081526020016000206002015402905060006004600087815260200190815260200160002060009054906101000a900473ffffffffffffffffffffffffffffffffffffffff1690508073ffffffffffffffffffffffffffffffffffffffff166108fc839081150290604051600060405180830381858888f19350505050158015611134573d6000803e3d6000fd5b5050505b816004600086815260200190815260200160002060006101000a81548173ffffffffffffffffffffffffffffffffffffffff021916908373ffffffffffffffffffffffffffffffffffffffff160217905550806040015185858154811061119b57fe5b9060005260206000200181905550611210565b6000670de0b6b3a7640000826040015102905060008390508073ffffffffffffffffffffffffffffffffffffffff166108fc839081150290604051600060405180830381858888f1935050505015801561120c573d6000803e3d6000fd5b5050505b6000600760008473ffffffffffffffffffffffffffffffffffffffff1673ffffffffffffffffffffffffffffffffffffffff16815260200190815260200160002060000160006101000a81548160ff0219169083151502179055506001600760008473ffffffffffffffffffffffffffffffffffffffff1673ffffffffffffffffffffffffffffffffffffffff16815260200190815260200160002060030160006101000a81548160ff0219169083151502179055505b50508080600101915050610e89565b5060008054906101000a900473ffffffffffffffffffffffffffffffffffffffff1673ffffffffffffffffffffffffffffffffffffffff166004600083815260200190815260200160002060009054906101000a900473ffffffffffffffffffffffffffffffffffffffff1673ffffffffffffffffffffffffffffffffffffffff16146114995760016008600083815260200190815260200160002060020160006101000a81548160ff0219169083151502179055506004600082815260200190815260200160002060009054906101000a900473ffffffffffffffffffffffffffffffffffffffff166008600083815260200190815260200160002060020160016101000a81548173ffffffffffffffffffffffffffffffffffffffff021916908373ffffffffffffffffffffffffffffffffffffffff1602179055506001600960006004600085815260200190815260200160002060009054906101000a900473ffffffffffffffffffffffffffffffffffffffff1673ffffffffffffffffffffffffffffffffffffffff1673ffffffffffffffffffffffffffffffffffffffff168152602001908152602001600020600101600082825401925050819055505b5b8080600101915050610e24565b506000600660006101000a81548160ff021916908315150217905550336000806101000a81548173ffffffffffffffffffffffffffffffffffffffff021916908373ffffffffffffffffffffffffffffffffffffffff16021790555050565b60076020528060005260406000206000915090508060000160009054906101000a900460ff16908060010154908060020154908060030160009054906101000a900460ff16905084565b600081905060001515600960008373ffffffffffffffffffffffffffffffffffffffff1673ffffffffffffffffffffffffffffffffffffffff16815260200190815260200160002060000160009054906101000a900460ff16151514156116b8576002819080600181540180825580915050600190039060005260206000200160009091909190916101000a81548173ffffffffffffffffffffffffffffffffffffffff021916908373ffffffffffffffffffffffffffffffffffffffff1602179055506001600960008373ffffffffffffffffffffffffffffffffffffffff1673ffffffffffffffffffffffffffffffffffffffff16815260200190815260200160002060000160006101000a81548160ff0219169083151502179055506003600960008373ffffffffffffffffffffffffffffffffffffffff1673ffffffffffffffffffffffffffffffffffffffff168152602001908152602001600020600101819055505b5050565b60008054906101000a900473ffffffffffffffffffffffffffffffffffffffff1673ffffffffffffffffffffffffffffffffffffffff163373ffffffffffffffffffffffffffffffffffffffff1614611760576040517f08c379a00000000000000000000000000000000000000000000000000000000081526004018080602001828103825260278152602001806123f46027913960400191505060405180910390fd5b6000825114156117d8576040517f08c379a000000000000000000000000000000000000000000000000000000000815260040180806020018281038252601a8152602001807f506c6561736520696e70757420746865206974656d206e616d6500000000000081525060200191505060405180910390fd5b6000811161184e576040517f08c379a000000000000000000000000000000000000000000000000000000000815260040180806020018281038252601a8152602001807f506c6561736520696e70757420612076616c696420707269636500000000000081525060200191505060405180910390fd5b81600860006001548152602001908152602001600020600001908051906020019061187a929190612348565b50670de0b6b3a7640000810260086000600154815260200190815260200160002060010181905550600060086000600154815260200190815260200160002060020160006101000a81548160ff02191690831515021790555060008054906101000a900473ffffffffffffffffffffffffffffffffffffffff1660086000600154815260200190815260200160002060020160016101000a81548173ffffffffffffffffffffffffffffffffffffffff021916908373ffffffffffffffffffffffffffffffffffffffff16021790555060008054906101000a900473ffffffffffffffffffffffffffffffffffffffff1660046000600154815260200190815260200160002060006101000a81548173ffffffffffffffffffffffffffffffffffffffff021916908373ffffffffffffffffffffffffffffffffffffffff160217905550600180600082825401925050819055505050565b60046020528060005260406000206000915054906101000a900473ffffffffffffffffffffffffffffffffffffffff1681565b60008054906101000a900473ffffffffffffffffffffffffffffffffffffffff1681565b60055481565b600760003373ffffffffffffffffffffffffffffffffffffffff1673ffffffffffffffffffffffffffffffffffffffff1681526020019081526020016000206040518060800160405290816000820160009054906101000a900460ff1615151515815260200160018201548152602001600282015481526020016003820160009054906101000a900460ff16151515158152505080600001511515816060015115151480611ae557506001151581606001511515145b611b57576040517f08c379a00000000000000000000000000000000000000000000000000000000081526004018080602001828103825260128152602001807f4f72646572206e6f7420636f6d706c657465000000000000000000000000000081525060200191505060405180910390fd5b60086000848152602001908152602001600020604051806080016040529081600082018054600181600116156101000203166002900480601f016020809104026020016040519081016040528092919081815260200182805460018160011615610100020316600290048015611c0e5780601f10611be357610100808354040283529160200191611c0e565b820191906000526020600020905b815481529060010190602001808311611bf157829003601f168201915b50505050508152602001600182015481526020016002820160009054906101000a900460ff161515151581526020016002820160019054906101000a900473ffffffffffffffffffffffffffffffffffffffff1673ffffffffffffffffffffffffffffffffffffffff1673ffffffffffffffffffffffffffffffffffffffff1681525050806040015115611d0a576040517f08c379a000000000000000000000000000000000000000000000000000000000815260040180806020018281038252601f8152602001807f546865206974656d2068617320616c7265616479206265656e20736f6c64200081525060200191505060405180910390fd5b6000670de0b6b3a764000084029050600085118015611d2a575060015485105b611d9c576040517f08c379a000000000000000000000000000000000000000000000000000000000815260040180806020018281038252601d8152602001807f506c6561736520696e70757420616e2076616c6964206974656d20494400000081525060200191505060405180910390fd5b6008600086815260200190815260200160002060010154811015611e0b576040517f08c379a00000000000000000000000000000000000000000000000000000000081526004018080602001828103825260378152602001806124436037913960400191505060405180910390fd5b6000339050611e1981611550565b6000600960008373ffffffffffffffffffffffffffffffffffffffff1673ffffffffffffffffffffffffffffffffffffffff1681526020019081526020016000206001015411611eb4576040517f08c379a000000000000000000000000000000000000000000000000000000000815260040180806020018281038252605c81526020018061247a605c913960600191505060405180910390fd5b81341015611f2a576040517f08c379a000000000000000000000000000000000000000000000000000000000815260040180806020018281038252601e8152602001807f596f752068617665206e6f74207061696420656e6f756768206574686572000081525060200191505060405180910390fd5b3073ffffffffffffffffffffffffffffffffffffffff166108fc839081150290604051600060405180830381858888f19350505050158015611f70573d6000803e3d6000fd5b508073ffffffffffffffffffffffffffffffffffffffff166108fc8334039081150290604051600060405180830381858888f19350505050158015611fb9573d6000803e3d6000fd5b506001600760008373ffffffffffffffffffffffffffffffffffffffff1673ffffffffffffffffffffffffffffffffffffffff16815260200190815260200160002060000160006101000a81548160ff02191690831515021790555085600760008373ffffffffffffffffffffffffffffffffffffffff1673ffffffffffffffffffffffffffffffffffffffff1681526020019081526020016000206001018190555084600760008373ffffffffffffffffffffffffffffffffffffffff1673ffffffffffffffffffffffffffffffffffffffff168152602001908152602001600020600201819055506000600760008373ffffffffffffffffffffffffffffffffffffffff1673ffffffffffffffffffffffffffffffffffffffff16815260200190815260200160002060030160006101000a81548160ff0219169083151502179055506001600660006101000a81548160ff021916908315150217905550505050505050565b600047905090565b60015481565b60035481565b6000670de0b6b3a76400008202905060055481101561219f576040517f08c379a000000000000000000000000000000000000000000000000000000000815260040180806020018281038252602881526020018061241b6028913960400191505060405180910390fd5b60003390506121ad81611550565b81341015612223576040517f08c379a000000000000000000000000000000000000000000000000000000000815260040180806020018281038252601e8152602001807f596f752068617665206e6f74207061696420656e6f756768206574686572000081525060200191505060405180910390fd5b3073ffffffffffffffffffffffffffffffffffffffff166108fc839081150290604051600060405180830381858888f19350505050158015612269573d6000803e3d6000fd5b508073ffffffffffffffffffffffffffffffffffffffff166108fc8334039081150290604051600060405180830381858888f193505050501580156122b2573d6000803e3d6000fd5b506001600960008373ffffffffffffffffffffffffffffffffffffffff1673ffffffffffffffffffffffffffffffffffffffff16815260200190815260200160002060010160008282540192505081905550505050565b6002818154811061231957600080fd5b906000526020600020016000915054906101000a900473ffffffffffffffffffffffffffffffffffffffff1681565b828054600181600116156101000203166002900490600052602060002090601f01602090048101928261237e57600085556123c5565b82601f1061239757805160ff19168380011785556123c5565b828001600101855582156123c5579182015b828111156123c45782518255916020019190600101906123a9565b5b5090506123d291906123d6565b5090565b5b808211156123ef5760008160009055506001016123d7565b509056fe46756e6374696f6e2063616e206f6e6c792062652063616c6c20627920746865206f776e65722e506c6561736520646f6e617465206174206c65617374203120657468657220656163682074696d65596f752073686f756c64206f66666572206120707269636520686967686572207468616e207468652064656661756c7420707269636521596f7520646f206e6f74206861766520656e6f756768206372656469742c20796f752061726520616c726561647920696e2074686520626c61636b6c6973742120446f6e61746520746f206561726e20657874726120637265646974a2646970667358221220a58a67286b8105f35bea1bd310afd1ddc0e15d4bc1ce9ad46f594fdca8c638b764736f6c63430007060033",
  "immutableReferences": {},
  "source": "// SPDX-License-Identifier: MIT\r\n// Author: Xiaoan Sun\r\n\r\npragma solidity ^0.7.6;\r\n\r\ncontract CharityBazaar{\r\n\r\n    // The owner is the charity\r\n    address payable public _owner;\r\n    // The item ID counter\r\n    uint public idCounter = 1;\r\n\r\n    // The registered User list\r\n    address[] public registeredUser;\r\n    uint public userCounter = 0;\r\n\r\n    // The highest price for each item\r\n    mapping (uint => address) public itemHighestPrice;\r\n\r\n    // The minimal donate amount\r\n    uint public minimalDonateAmount = 1 ether;\r\n\r\n    // Whether any order remains to be confirmed\r\n    bool public isAnyOrderPending = false;\r\n\r\n    constructor() payable{\r\n\r\n        _owner = msg.sender;\r\n\r\n    }\r\n\r\n    // The Item that waiting for auction\r\n    struct CharityItem{\r\n        string itemName;\r\n        uint price;\r\n        bool isItemSold;\r\n        address owner;\r\n\r\n    }\r\n\r\n    // The order created by buyer\r\n    struct AuctionOrder{\r\n        bool isValidOrder;\r\n        uint itemID;\r\n        uint price;\r\n        bool hasConfirmed;\r\n\r\n    }\r\n\r\n    // The credit system\r\n    struct credit{\r\n        bool isUserExisted;\r\n        uint creditRest;\r\n    }\r\n\r\n    // order list\r\n    mapping (address=> AuctionOrder) public orderList;\r\n    // Item list\r\n    mapping (uint => CharityItem) public itemList;\r\n    // Credit list\r\n    mapping (address=> credit) public creditList;\r\n\r\n\r\n    // Used to make contract receive ether\r\n    receive() external payable {}\r\n\r\n    // The charity will create Item and release it to the market\r\n    function createItem(string memory _itemName, uint _price) public\r\n    onlyOwner(){\r\n        require(bytes(_itemName).length != 0,\"Please input the item name\");\r\n        require(_price > 0,\"Please input a valid price\");\r\n        itemList[idCounter].itemName = _itemName;\r\n        itemList[idCounter].price = _price* (1 ether);\r\n        itemList[idCounter].isItemSold = false;\r\n        itemList[idCounter].owner = _owner;\r\n        itemHighestPrice[idCounter] = _owner;\r\n        idCounter += 1;\r\n\r\n    }\r\n\r\n    // Bid the item that is not sold\r\n    function bidItem(uint _itemID, uint _bidPrice) public payable\r\n    isOrderCompleted(orderList[msg.sender])\r\n    isItemSold(itemList[_itemID]){\r\n\r\n\r\n\r\n        uint givenPrice = _bidPrice * (1 ether);\r\n        require(_itemID >0 && _itemID < idCounter,\"Please input an valid item ID\");\r\n        require(givenPrice>= itemList[_itemID].price,\"You should offer a price higher than the default price!\");\r\n        address payable addressUser = msg.sender;\r\n\r\n        checkFirstUser(addressUser);\r\n\r\n        require(creditList[addressUser].creditRest > 0,\r\n            \"You do not have enough credit, you are already in the blacklist! Donate to earn extra credit\");\r\n\r\n        // Pay ether\r\n        require(msg.value >= givenPrice,\"You have not paid enough ether\");\r\n        address(this).transfer(givenPrice);\r\n        addressUser.transfer(msg.value - givenPrice);\r\n\r\n        // Create an order\r\n        orderList[addressUser].isValidOrder = true;\r\n        orderList[addressUser].itemID = _itemID;\r\n        orderList[addressUser].price = _bidPrice;\r\n        orderList[addressUser].hasConfirmed = false;\r\n\r\n        isAnyOrderPending = true;\r\n    }\r\n\r\n    // Buyer can cancel the order if the order has not been confirmed yet. This will cost 1 credit as punishment\r\n    function cancelOrder() public payable\r\n    isPending(orderList[msg.sender]){\r\n        address payable addressUser = msg.sender;\r\n        require(orderList[addressUser].hasConfirmed == false,\"The order has already confirmed\");\r\n        orderList[addressUser].isValidOrder = false;\r\n        uint refund = orderList[addressUser].price * (1 ether);\r\n        addressUser.transfer(refund);\r\n\r\n        // Decrease 1 credit as punishment\r\n        creditList[addressUser].creditRest -= 1;\r\n\r\n    }\r\n\r\n    // The charity will confirm the order to finish all existing deal\r\n    function confirm() public payable\r\n    onlyOwner(){\r\n        require (isAnyOrderPending,\"No order under pending\");\r\n\r\n        // Used to store the highest price\r\n        uint [] storage itemUnderBid;\r\n        itemUnderBid.push(0);\r\n        // Loop over each item\r\n        for (uint itemID = 1; itemID <= idCounter; itemID++){\r\n            itemUnderBid.push(0);\r\n            // Check if the item has already been sold\r\n            if(itemList[itemID].isItemSold == false){\r\n                // Loop over all existing user to check their order, find the highest bidding price for each item\r\n                for (uint j = 0; j < registeredUser.length; j++){\r\n                    // extract the order from mapping by the address\r\n                    address currentAddress = registeredUser[j];\r\n                    AuctionOrder memory order = orderList[currentAddress];\r\n                    // Check whether the order existing is valid and the item ID is matched\r\n                    if (order.isValidOrder == true && order.itemID == itemID){\r\n                        // If the price offered in the order is higher than the current highest price, record the new address and price\r\n                        if (order.price >  itemUnderBid[itemID]){\r\n                            // Refund the bidding to last highest user keeper\r\n                            if (itemHighestPrice[itemID] != _owner){\r\n                                uint refund = orderList[itemHighestPrice[itemID]].price * (1 ether);\r\n                                address payable addressRefund  = payable(address(itemHighestPrice[itemID]));\r\n                                addressRefund.transfer(refund);\r\n                            }\r\n                            itemHighestPrice[itemID] = currentAddress;\r\n                            itemUnderBid[itemID] = order.price;\r\n                        }\r\n                        // If the price fails to bid, refund the ether to the corresponding buyer;\r\n                        else {\r\n                            uint refund = order.price * (1 ether);\r\n                            address payable addressRefund  = payable(address(currentAddress));\r\n                            addressRefund.transfer(refund);\r\n                        }\r\n\r\n                        // Change the order state\r\n                        orderList[currentAddress].isValidOrder = false;\r\n                        orderList[currentAddress].hasConfirmed = true;\r\n                    }\r\n                }\r\n\r\n                // change the item state if there's any one succeed in bidding;\r\n                if (itemHighestPrice[itemID] != _owner){\r\n                    itemList[itemID].isItemSold = true;\r\n                    itemList[itemID].owner = itemHighestPrice[itemID];\r\n                    // Give one credit as reward\r\n                    creditList[itemHighestPrice[itemID]].creditRest += 1;\r\n                }\r\n            }\r\n        }\r\n        isAnyOrderPending = false;\r\n\r\n        // The _owner will change after confirm, the reason is still unknown\r\n        _owner = msg.sender;\r\n    }\r\n\r\n    function donate(uint _donatePrice) public payable{\r\n        uint givenPrice = _donatePrice * (1 ether);\r\n        require(givenPrice >= minimalDonateAmount,\"Please donate at least 1 ether each time\");\r\n        address payable addressUser = msg.sender;\r\n\r\n        checkFirstUser(addressUser);\r\n\r\n        // Pay ether\r\n        require(msg.value >= givenPrice,\"You have not paid enough ether\");\r\n        address(this).transfer(givenPrice);\r\n        addressUser.transfer(msg.value - givenPrice);\r\n        creditList[addressUser].creditRest += 1;\r\n    }\r\n\r\n\r\n    // Check if this is a new user. If it is, give the user 3 default credit;\r\n    function checkFirstUser(address userAddress) public{\r\n        address addressUser = userAddress;\r\n        if(creditList[addressUser].isUserExisted == false){\r\n            registeredUser.push(addressUser);\r\n            creditList[addressUser].isUserExisted = true;\r\n            creditList[addressUser].creditRest = 3;\r\n        }\r\n    }\r\n\r\n    function withdraw() external onlyOwner {\r\n        _owner.transfer(address(this).balance);\r\n    }\r\n\r\n    function balanceOfUser() public view returns (uint256) {\r\n        return msg.sender.balance;\r\n    }\r\n\r\n    function balanceOfContract() public view returns (uint256) {\r\n        return address(this).balance;\r\n    }\r\n\r\n    function balanceOfOwner() public view returns (uint256) {\r\n        return _owner.balance;\r\n    }\r\n\r\n    modifier onlyOwner {\r\n        require(msg.sender == _owner, \"Function can only be call by the owner.\");\r\n        _;\r\n    }\r\n\r\n    modifier isOrderCompleted (AuctionOrder memory order){\r\n        require(order.hasConfirmed == order.isValidOrder || order.hasConfirmed ==true,\r\n            \"Order not complete\");\r\n        _;\r\n    }\r\n\r\n    modifier isItemSold(CharityItem memory item){\r\n        require(!item.isItemSold,\"The item has already been sold \");\r\n        _;\r\n    }\r\n\r\n    modifier isPending(AuctionOrder memory order){\r\n        require(order.isValidOrder == true && order.hasConfirmed ==false, \"No order pending\");\r\n        _;\r\n    }\r\n\r\n}",
  "sourcePath": "/home/ubuntu/Desktop/charity_bazaar/src/contracts/charityBazaar.sol",
  "compiler": {
    "name": "solc",
    "version": "0.7.6+commit.7338295f.Emscripten.clang"
  },
  "schemaVersion": "3.3.4",
  "updatedAt": "2021-04-10T04:56:52.022Z",
  "devdoc": {
    "kind": "dev",
    "methods": {},
    "version": 1
  },
  "userdoc": {
    "kind": "user",
    "methods": {},
    "version": 1
  }
}